:100000000C9463000C948B000C948B000C948B006C
:100010000C948B000C948B000C948B000C948B0034
:100020000C948B000C948B000C948B000C948B0024
:100030000C948B000C948B000C948B000C948B0014
:100040000C9492040C948B000C9460040C943A046D
:100050000C948B000C948B000C948B000C948B00F4
:100060000C948B000C948B000000000024002700EF
:100070002A0000000000250028002B0000000000DE
:1000800023002600290004040404040404040202DA
:100090000202020203030303030301020408102007
:1000A0004080010204081020010204081020000012
:1000B0000008000201000003040700000000000027
:1000C0000000DC04980711241FBECFEFD8E0DEBF8C
:1000D000CDBF22E0A4ECB1E001C01D92AE38B20762
:1000E000E1F711E0A0E0B1E0ECECF3E102C0059033
:1000F0000D92A43CB107D9F710E0C2E6D0E004C0ED
:100100002197FE010E94D807C136D107C9F70E9486
:100110007C050C94D9090C940000AF92BF92CF9249
:10012000DF92EF92FF920F931F93CF93DF936C01B7
:100130007B018B01040F151FEB015E01AE18BF0898
:10014000C017D10759F06991D601ED91FC9101904A
:10015000F081E02DC6010995892B79F7C501DF9162
:10016000CF911F910F91FF90EF90DF90CF90BF90B4
:10017000AF900895FC01538D448D252F30E0842FDE
:1001800090E0821B930B541710F0CF9608950197BF
:100190000895FC01918D828D981761F0A28DAE0FAC
:1001A000BF2FB11D5D968C91928D9F5F9F73928F33
:1001B00090E008958FEF9FEF0895FC01918D828D5F
:1001C000981731F0828DE80FF11D858D90E008952C
:1001D0008FEF9FEF0895FC01918D228D892F90E084
:1001E000805C9F4F821B91098F73992708958FEC34
:1001F00091E00E94EB0021E0892B09F420E0822F9E
:10020000089580E090E0892B29F00E94F700811189
:100210000C9400000895FC01A48DA80FB92FB11D06
:10022000A35ABF4F2C91848D90E001968F7399272C
:10023000848FA689B7892C93A089B1898C9183700A
:1002400080648C93938D848D981306C00288F38903
:10025000E02D80818F7D80830895EF92FF920F9330
:100260001F93CF93DF93EC0181E0888F9B8D8C8D62
:1002700098131AC0E889F989808185FF15C09FB756
:10028000F894EE89FF896083E889F9898081837019
:10029000806480839FBF81E090E0DF91CF911F91C8
:1002A0000F91FF90EF900895F62E0B8D10E00F5FE9
:1002B0001F4F0F731127E02E8C8D8E110CC00FB6BF
:1002C00007FCFACFE889F989808185FFF5CFCE0157
:1002D0000E940B01F1CFEB8DEC0FFD2FF11DE35AC6
:1002E000FF4FF0829FB7F8940B8FEA89FB898081DA
:1002F0008062CFCFCF93DF93EC01888D8823B9F054
:10030000AA89BB89E889F9898C9185FD03C0808120
:1003100086FD0DC00FB607FCF7CF8C9185FFF2CF9D
:10032000808185FFEDCFCE010E940B01E9CFDF91E7
:10033000CF910895833081F028F4813099F0823094
:10034000A9F008958730A9F08830C9F08430B1F45D
:10035000809180008F7D03C0809180008F77809393
:100360008000089584B58F7784BD089584B58F7D0E
:10037000FBCF8091B0008F778093B000089580917B
:10038000B0008F7DF9CFCF93DF93282F30E0F901B4
:10039000E255FF4F8491F901E656FF4FD491F901E0
:1003A000EA57FF4FC491CC23A1F081110E949A011A
:1003B000EC2FF0E0EE0FFF1FE458FF4FA591B49132
:1003C000EC91ED2381E090E009F480E0DF91CF91A2
:1003D000089580E090E0FACF1F93CF93DF93282F0A
:1003E00030E0F901E255FF4F8491F901E656FF4FE5
:1003F000D491F901EA57FF4FC491CC23A9F0162FED
:1004000081110E949A01EC2FF0E0EE0FFF1FEE58D1
:10041000FF4FA591B4918FB7F894EC91111108C0DA
:10042000D095DE23DC938FBFDF91CF911F9108958C
:10043000DE2BF8CFCF93DF9390E0FC01E656FF4F21
:1004400024918A579F4FFC0184918823D1F090E03A
:10045000880F991FFC01E859FF4FA591B491FC0149
:10046000EE58FF4FC591D49161110EC09FB7F8941B
:100470008C91E22FE0958E238C932881E223E883F0
:100480009FBFDF91CF9108958FB7F894EC91E22B45
:10049000EC938FBFF6CF3FB7F8948091C90190914C
:1004A000CA01A091CB01B091CC0126B5A89B05C093
:1004B0002F3F19F00196A11DB11D3FBFBA2FA92FE3
:1004C000982F8827BC01CD01620F711D811D911DE0
:1004D00042E0660F771F881F991F4A95D1F708954C
:1004E0008F929F92AF92BF92CF92DF92EF92FF9244
:1004F0004B015C010E944B026B017C010E944B028C
:100500006C197D098E099F09683E7340810591052C
:10051000A8F321E0821A9108A108B10888EEC80E5C
:1005200083E0D81EE11CF11C81149104A104B104E4
:1005300029F7FF90EF90DF90CF90BF90AF909F9002
:100540008F900895089590E080E00895CF93DF9311
:10055000EC0160E08E810E94EC0161E08E810E94DE
:10056000EC0160E08E810E94EC018BE891E0019744
:10057000F1F7DF91CF910895CF92DF92EF92FF9242
:100580000F931F93CF93DF936C017C0187E0E80EFC
:10059000F11CD0E0C0E0062F10E0B8010C2E02C024
:1005A000759567950A94E2F76170F70181917F0173
:1005B0000E94EC012196C430D10579F7C601DF9184
:1005C000CF911F910F91FF90EF90DF90CF900C94FF
:1005D000A602CF92DF92EF92FF920F931F93CF93D9
:1005E000DF93EC01F62E642F8C810E94EC018D814B
:1005F0008F3F19F060E00E94EC010F2D10E08F8515
:1006000084FF25C06E0187E0C80ED11CF12CE12CBF
:10061000B8010E2C02C0759567950A94E2F76170D7
:10062000F60181916F010E94EC01FFEFEF1AFF0AC2
:1006300088E0E816F10461F7CE01DF91CF911F91B8
:100640000F91FF90EF90DF90CF900C94A602B8012D
:1006500084E0759567958A95E1F7CE010E94BC020A
:100660006F2DCE01DF91CF911F910F91FF90EF90F1
:10067000DF90CF900C94BC0240E0682F8CE692E0B3
:100680000C94E90281E00E943C038BE39FE1019717
:10069000F1F70895CF93DF93823029F490917B0294
:1006A000986090937B0280937F021092800280E496
:1006B0008093810280E18093820280E580938302AF
:1006C00061E0809170020E941A02809171028F3F56
:1006D00019F061E00E941A0261E0809172020E94AA
:1006E0001A02CCE6D2E09E012C56324080917B0269
:1006F00084FD0BC084E090E021962817390744F46C
:1007000061E08E810E941A02EECF88E090E0F4CF83
:100710008BE39DE00197F1F760E0809170020E9409
:10072000EC0160E0809172020E94EC018091710204
:100730008F3F19F060E00E94EC0180917B0284FD04
:1007400034C063E08CE692E00E94BC02CBE4D6E4C5
:10075000CE010197F1F763E08CE692E00E94BC02C3
:100760002197F1F763E08CE692E00E94BC0283E5FA
:1007700092E00197F1F762E08CE692E00E94BC0201
:1007800080917B0280620E943C0384E080937C0223
:100790008CE00E943C030E94420382E080937D0231
:1007A00086E0DF91CF910C943C0380620E943C0371
:1007B0008BE496E40197F1F780917B0280620E94BE
:1007C0003C0383E592E00197F1F780917B02806220
:1007D0000E943C03D5CF90917F02891710F08FEFD4
:1007E000890FE82FF0E0E459FD4F848980680C946C
:1007F0003C0341E00E94E90281E090E00895FC01A1
:1008000001900020E9F73197AF01481B590BBC015B
:100810008CE692E00C948D00CF93DF93EC018091F5
:10082000840290918502009759F0209186023091C0
:1008300087022C173D0720F081E0DF91CF910895CA
:10084000BE016F5F7F4F0E940309009789F090936C
:10085000850280938402D0938702C0938602209100
:10086000880230918902232B39F7FC011082E4CFF2
:1008700080E0E3CF1F920F920FB60F9211242F93B7
:100880003F934F935F936F937F938F939F93AF9318
:10089000BF93EF93FF938FEC91E00E940B01FF91C8
:1008A000EF91BF91AF919F918F917F916F915F91E8
:1008B0004F913F912F910F900FBE0F901F90189561
:1008C0001F920F920FB60F9211242F938F939F9325
:1008D000EF93FF93E091DF01F091E0018081E091DF
:1008E000E501F091E60182FD1BC090818091E80155
:1008F0008F5F8F732091E901821741F0E091E80149
:10090000F0E0E153FE4F958F8093E801FF91EF9166
:100910009F918F912F910F900FBE0F901F90189560
:100920008081F4CF1F920F920FB60F9211242F9354
:100930003F938F939F93AF93BF938091C501909105
:10094000C601A091C701B091C8013091C40123E054
:10095000230F2D3758F50196A11DB11D2093C40119
:100960008093C5019093C601A093C701B093C801BD
:100970008091C9019091CA01A091CB01B091CC01A5
:100980000196A11DB11D8093C9019093CA01A09346
:10099000CB01B093CC01BF91AF919F918F913F91CB
:1009A0002F910F900FBE0F901F90189526E8230FE0
:1009B0000296A11DB11DD2CF1092D2011092D10189
:1009C00088EE93E0A0E0B0E08093D3019093D4014F
:1009D000A093D501B093D6018AE091E09093D00125
:1009E0008093CF0185EC90E09093DC018093DB0154
:1009F00084EC90E09093DE018093DD0180EC90E048
:100A00009093E0018093DF0181EC90E09093E2010C
:100A10008093E10182EC90E09093E4018093E30104
:100A200086EC90E09093E6018093E5011092E80156
:100A30001092E9011092EA011092EB0110928502E6
:100A400010928402109287021092860210928902FC
:100A50001092880290E080E00E940C0420918402B1
:100A60003091850281113EC02115310519F0C9016F
:100A70000E947A08109285021092840210928902D4
:100A800010928802109287021092860210926F02D2
:100A900010926E028CE191E090936D0280936C0253
:100AA0008DE0809370028FEF809371028CE08093D1
:100AB00072028BE0809373028AE08093740289E073
:100AC0008093750288E080937602109277021092EC
:100AD00078021092790210927A0210927B0281E0E1
:100AE0000C944A0310928902109288026EE571E01C
:100AF000C9010E94D209CACFCF93DF9300D0CDB7EE
:100B0000DEB7789484B5826084BD84B5816084BD8D
:100B100085B5826085BD85B5816085BD80916E009B
:100B2000816080936E0010928100809181008260CC
:100B30008093810080918100816080938100809109
:100B400080008160809380008091B10084608093F8
:100B5000B1008091B00081608093B00080917A00F4
:100B6000846080937A0080917A00826080937A001A
:100B700080917A00816080937A0080917A00806809
:100B800080937A001092C10061E082E00E941A0214
:100B900060E086E00E941A0260E083E00E941A0290
:100BA000E091DF01F091E00182E08083E091DB01E0
:100BB000F091DC011082E091DD01F091DE018FEC1B
:100BC00080831092E701E091E301F091E40186E077
:100BD0008083E091E101F091E20180818061808376
:100BE000E091E101F091E201808188608083E091F1
:100BF000E101F091E201808180688083E091E10170
:100C0000F091E20180818F7D808360E082E00E942C
:100C1000EC0182E00E944A030E94420380E00E94AD
:100C2000EB0384E291E00E94FF0381E00E94EB036A
:100C30008CE291E00E94FF0360ED77E080E090E0BD
:100C40000E9470020E94420380E00E94EB0384E253
:100C500091E00E94FF0381E00E94EB0388E391E0B2
:100C60000E94FF0364EF71E080E090E00E94700258
:100C70000E94420380E00E94EB0384E291E00E9424
:100C8000FF0381E00E94EB038AE391E00E94FF03EF
:100C900060ED77E080E090E00E94700280E0E82E56
:100CA00080E0F82E0E94420380E00E94EB0386E47D
:100CB00091E00E94FF038FEC91E00E94EB00892BF2
:100CC00059F16AE070E080E090E00E9470028FECE1
:100CD00091E00E94C90089831A82009188021091D4
:100CE00089020F5F1F4FC8010E940C04882319F36B
:100CF000209184023091850280918802909189022E
:100D0000BE016F5F7F4F820F931F0E94D209109325
:100D1000890200938802CFCF83E00E94C30121E0C3
:100D2000892B09F420E02093CE0186E00E94C301C4
:100D300021E0009709F420E02093CD01892B09F4EC
:100D400054C081E00E94EB0381E591E00E94FF0323
:100D500068EE73E080E090E00E94700240918802AB
:100D60005091890241155105E1F160918402709121
:100D700085028FEC91E00E948D0042E050E06CE52E
:100D800071E08FEC91E00E948D008091880290913B
:100D90008902892B31F100918402109185026FE55F
:100DA00071E0C8010E94C909892B09F09CC061E06B
:100DB00082E00E94EC010E94420380E00E94EB036B
:100DC00086E491E00E94FF0381E00E94EB0382E64B
:100DD00091E00E94FF0368EE73E080E090E00E94E3
:100DE00070028091CD01811156C00E94420380E0C3
:100DF0000E94EB0386E491E00E94FF0381E00E94E1
:100E0000EB0388E891E00E94FF0368EE73E080E066
:100E100090E00E9470028091CE01882389F060E00A
:100E200082E00E94EC0181E00E94EB0385E991E001
:100E30000E94FF0368EE73E080E090E00E94700281
:100E40008091CE01811127C061E082E00E94EC0117
:100E500081E00E94EB0385EA91E00E94FF036CEBC6
:100E600072E080E090E00E9470020E94420380E005
:100E70000E94EB0386E491E00E94FF0381E00E9460
:100E8000EB0386EB91E00E94FF036CEB72E080E0E5
:100E900090E00E94700290E080E00E940C0420919B
:100EA000840230918502811139C02115310519F074
:100EB000C9010E947A081092850210928402109251
:100EC0008902109288021092870210928602E11421
:100ED000F10409F4E7CE0E94F700882309F4E2CE7A
:100EE0000E940000DFCE64E771E0C8010E94C909DA
:100EF000892B09F076CF60E082E00E94EC010E942D
:100F0000420380E00E94EB0386E491E00E94FF032D
:100F100081E00E94EB0388E791E05BCF10928902A9
:100F2000109288026EE571E0C9010E94D209CFCF0C
:100F30008091840290918502009711F00C947A08B8
:100F400008952F923F924F925F926F927F928F926D
:100F50009F92AF92BF92CF92DF92EF92FF920F9348
:100F60001F93CF93DF93CDB7DEB7CA1BDB0B0FB652
:100F7000F894DEBF0FBECDBF09942A88398848880F
:100F80005F846E847D848C849B84AA84B984C884A5
:100F9000DF80EE80FD800C811B81AA81B981CE0F9C
:100FA000D11D0FB6F894DEBF0FBECDBFED01089581
:100FB000EE0FFF1F0590F491E02D09940F931F93FE
:100FC000CF93DF938230910510F482E090E0E091BE
:100FD0008C02F0918D0230E020E0B0E0A0E030978C
:100FE00099F42115310509F44AC0281B390B243026
:100FF0003105D8F58A819B816115710589F1FB0165
:1010000093838283FE0111C040815181028113814B
:1010100048175907E0F04817590799F4109761F0FD
:1010200012960C93129713961C933296CF01DF9170
:10103000CF911F910F91089500938C0210938D0210
:10104000F4CF2115310551F04217530738F0A901AB
:10105000DB019A01BD01DF01F801C1CFEF01F9CF3A
:1010600090938D0280938C02CDCFFE01E20FF31F8F
:10107000819391932250310939832883D7CF2091CE
:101080008A0230918B02232B41F42091020130918E
:10109000030130938B0220938A022091000130914A
:1010A00001012115310541F42DB73EB740910401EE
:1010B00050910501241B350BE0918A02F0918B02BF
:1010C000E217F307A0F42E1B3F0B2817390778F01F
:1010D000AC014E5F5F4F2417350748F04E0F5F1F7E
:1010E00050938B0240938A02819391939FCFF0E0BB
:1010F000E0E09CCFCF93DF930097E9F0FC013297BB
:1011000013821282A0918C02B0918D02ED0130E029
:1011100020E01097A1F420813181820F931F20914C
:101120008A0230918B022817390709F061C0F093C9
:101130008B02E0938A02DF91CF910895EA01CE17E6
:10114000DF07E8F54A815B819E0141155105B1F742
:10115000E901FB83EA8349915991C40FD51FEC172C
:10116000FD0761F4808191810296840F951FE9014A
:1011700099838883828193819B838A83F0E0E0E076
:1011800012968D919C9113970097B9F52D913C91F2
:101190001197CD010296820F931F20918A02309100
:1011A0008B022817390739F6309751F510928D02C6
:1011B00010928C02B0938B02A0938A02BCCFD3838F
:1011C000C28340815181840F951FC817D90761F4EC
:1011D0004E5F5F4F88819981480F591F518340832B
:1011E0008A819B81938382832115310509F0B0CFD9
:1011F000F0938D02E0938C029ECFFD01DC01C0CF05
:1012000013821282D7CFB0E0A0E0E9E0F9E00C94BD
:10121000A3078C01009751F4CB010E94DE078C01DB
:10122000C801CDB7DEB7E0E10C94BF07FC01E60FC3
:10123000F71F9C0122503109E217F30708F49DC003
:10124000D901CD91DC911197C617D70798F0C53019
:10125000D10530F3CE0104978617970708F3C61B14
:10126000D70B2297C193D1936D937C93CF010E94AA
:101270007A08D6CF5B01AC1ABD0A4C018C0E9D1EBC
:10128000A0918C02B0918D02512C412CF12CE12CBB
:10129000109731F580918A0290918B0288159905FB
:1012A00009F05CC04616570608F058C0809100014E
:1012B00090910101009741F48DB79EB740910401D0
:1012C00050910501841B950BE817F90708F055C0EC
:1012D000F0938B02E0938A02F90171836083A0CFBF
:1012E0008D919C91119712966C90129713967C9009
:1012F0001397A815B90559F56C0142E0C40ED11C2D
:10130000CA14DB0420F1AC014A195B09DA01129618
:10131000159780F06282738251834083D9016D9367
:101320007C93E114F10471F0D7011396FC93EE93D2
:10133000129776CF22968C0F9D1FF901918380839F
:10134000F301EFCFF0938D02E0938C0269CF481642
:10135000590608F42C017D01D3019ACFCB010E94DC
:10136000DE077C01009749F0AE01B8010E94C00978
:10137000C8010E947A08870153CF10E000E050CFE7
:10138000FB01DC0102C001900D9241505040D8F7A2
:101390000895FB01DC018D91019080190110D9F3B2
:1013A000990B0895FB01DC0101900D920020E1F7FB
:1013B000089510E0C2E6D0E004C0FE010E94D80704
:0C13C0002196C336D107C9F7F894FFCF7F
:1013CC0000008E028000000000002D018D00BA008C
:1013DC007A01EB00C900DD0000000000F9038D006C
:1013EC00A302A20257454C434F4D45004142484988
:1013FC004E4156205349520026005641494248411D
:10140C005620534952004D432050524F4A454354A5
:10141C0000425420436F6E74726F6C000D0A004FC3
:10142C004E004D616E75616C6C79205761746572FC
:10143C00696E67004F4646004D616E75616C6C7944
:10144C002053746F706564004155544F20434F4EC8
:10145C0054524F4C004E6F205761746572204E658C
:10146C0065646564004E4F5420454E4F55474820E7
:10147C005741544552005741544552494E4720411B
:04148C0055544F0064
:00000001FF
